{
  "contractName": "OasisCrowdsale",
  "abi": [
    {
      "constant": true,
      "inputs": [],
      "name": "rate",
      "outputs": [
        {
          "name": "",
          "type": "uint256"
        }
      ],
      "payable": false,
      "stateMutability": "view",
      "type": "function"
    },
    {
      "constant": true,
      "inputs": [],
      "name": "cap",
      "outputs": [
        {
          "name": "",
          "type": "uint256"
        }
      ],
      "payable": false,
      "stateMutability": "view",
      "type": "function"
    },
    {
      "constant": true,
      "inputs": [],
      "name": "weiRaised",
      "outputs": [
        {
          "name": "",
          "type": "uint256"
        }
      ],
      "payable": false,
      "stateMutability": "view",
      "type": "function"
    },
    {
      "constant": true,
      "inputs": [],
      "name": "capReached",
      "outputs": [
        {
          "name": "",
          "type": "bool"
        }
      ],
      "payable": false,
      "stateMutability": "view",
      "type": "function"
    },
    {
      "constant": true,
      "inputs": [],
      "name": "wallet",
      "outputs": [
        {
          "name": "",
          "type": "address"
        }
      ],
      "payable": false,
      "stateMutability": "view",
      "type": "function"
    },
    {
      "constant": false,
      "inputs": [
        {
          "name": "_beneficiary",
          "type": "address"
        }
      ],
      "name": "buyTokens",
      "outputs": [],
      "payable": true,
      "stateMutability": "payable",
      "type": "function"
    },
    {
      "constant": true,
      "inputs": [],
      "name": "token",
      "outputs": [
        {
          "name": "",
          "type": "address"
        }
      ],
      "payable": false,
      "stateMutability": "view",
      "type": "function"
    },
    {
      "inputs": [
        {
          "name": "_rate",
          "type": "uint256"
        },
        {
          "name": "_cap",
          "type": "uint256"
        },
        {
          "name": "_token",
          "type": "address"
        }
      ],
      "payable": false,
      "stateMutability": "nonpayable",
      "type": "constructor"
    },
    {
      "payable": true,
      "stateMutability": "payable",
      "type": "fallback"
    },
    {
      "anonymous": false,
      "inputs": [
        {
          "indexed": true,
          "name": "purchaser",
          "type": "address"
        },
        {
          "indexed": true,
          "name": "beneficiary",
          "type": "address"
        },
        {
          "indexed": false,
          "name": "value",
          "type": "uint256"
        },
        {
          "indexed": false,
          "name": "amount",
          "type": "uint256"
        }
      ],
      "name": "TokenPurchase",
      "type": "event"
    }
  ],
  "bytecode": "0x6060604052341561000f57600080fd5b60405160608061075a833981016040528080519060200190919080519060200190919080519060200190919050508183338360008311151561005057600080fd5b600073ffffffffffffffffffffffffffffffffffffffff168273ffffffffffffffffffffffffffffffffffffffff161415151561008c57600080fd5b600073ffffffffffffffffffffffffffffffffffffffff168173ffffffffffffffffffffffffffffffffffffffff16141515156100c857600080fd5b8260028190555081600160006101000a81548173ffffffffffffffffffffffffffffffffffffffff021916908373ffffffffffffffffffffffffffffffffffffffff160217905550806000806101000a81548173ffffffffffffffffffffffffffffffffffffffff021916908373ffffffffffffffffffffffffffffffffffffffff16021790555050505060008111151561016257600080fd5b80600481905550505050506105de8061017c6000396000f300606060405260043610610083576000357c0100000000000000000000000000000000000000000000000000000000900463ffffffff1680632c4e722e1461008e578063355274ea146100b75780634042b66f146100e05780634f93594514610109578063521eb27314610136578063ec8ac4d81461018b578063fc0c546a146101b9575b61008c3361020e565b005b341561009957600080fd5b6100a16102dc565b6040518082815260200191505060405180910390f35b34156100c257600080fd5b6100ca6102e2565b6040518082815260200191505060405180910390f35b34156100eb57600080fd5b6100f36102e8565b6040518082815260200191505060405180910390f35b341561011457600080fd5b61011c6102ee565b604051808215151515815260200191505060405180910390f35b341561014157600080fd5b6101496102fd565b604051808273ffffffffffffffffffffffffffffffffffffffff1673ffffffffffffffffffffffffffffffffffffffff16815260200191505060405180910390f35b6101b7600480803573ffffffffffffffffffffffffffffffffffffffff1690602001909190505061020e565b005b34156101c457600080fd5b6101cc610323565b604051808273ffffffffffffffffffffffffffffffffffffffff1673ffffffffffffffffffffffffffffffffffffffff16815260200191505060405180910390f35b60008034915061021e8383610348565b6102278261037b565b905061023e8260035461039990919063ffffffff16565b60038190555061024e83826103b7565b8273ffffffffffffffffffffffffffffffffffffffff163373ffffffffffffffffffffffffffffffffffffffff167f623b3804fa71d67900d064613da8f94b9617215ee90799290593e1745087ad188484604051808381526020018281526020019250505060405180910390a36102c583836103c5565b6102cd6103c9565b6102d7838361042d565b505050565b60025481565b60045481565b60035481565b60006004546003541015905090565b600160009054906101000a900473ffffffffffffffffffffffffffffffffffffffff1681565b6000809054906101000a900473ffffffffffffffffffffffffffffffffffffffff1681565b6103528282610431565b60045461036a8260035461039990919063ffffffff16565b1115151561037757600080fd5b5050565b60006103926002548361048190919063ffffffff16565b9050919050565b60008082840190508381101515156103ad57fe5b8091505092915050565b6103c182826104bc565b5050565b5050565b600160009054906101000a900473ffffffffffffffffffffffffffffffffffffffff1673ffffffffffffffffffffffffffffffffffffffff166108fc349081150290604051600060405180830381858888f19350505050151561042b57600080fd5b565b5050565b600073ffffffffffffffffffffffffffffffffffffffff168273ffffffffffffffffffffffffffffffffffffffff161415151561046d57600080fd5b6000811415151561047d57600080fd5b5050565b600080600084141561049657600091506104b5565b82840290508284828115156104a757fe5b041415156104b157fe5b8091505b5092915050565b6000809054906101000a900473ffffffffffffffffffffffffffffffffffffffff1673ffffffffffffffffffffffffffffffffffffffff166340c10f1983836000604051602001526040518363ffffffff167c0100000000000000000000000000000000000000000000000000000000028152600401808373ffffffffffffffffffffffffffffffffffffffff1673ffffffffffffffffffffffffffffffffffffffff16815260200182815260200192505050602060405180830381600087803b151561058857600080fd5b6102c65a03f1151561059957600080fd5b5050506040518051905015156105ae57600080fd5b50505600a165627a7a723058207a40e616f27856a99c21633e6c0c7ef1829737da3e9c3b5847473a3b21cc03cf0029",
  "source": "pragma solidity ^0.4.18;\nimport \"../node_modules/zeppelin-solidity/contracts/crowdsale/validation/CappedCrowdsale.sol\";\nimport \"../node_modules/zeppelin-solidity/contracts/crowdsale/emission/MintedCrowdsale.sol\";\nimport \"../node_modules/zeppelin-solidity/contracts/token/ERC20/MintableToken.sol\";\nimport \"./OasisCredit.sol\";\n\n\ncontract OasisCrowdsale is CappedCrowdsale, MintedCrowdsale {\n\n    function OasisCrowdsale(uint256 _rate, uint256 _cap, MintableToken _token) public\n        Crowdsale(_rate, msg.sender, _token)\n        CappedCrowdsale(_cap)\n        \n    {\n    }\n}\n",
  "sourcePath": "/Users/alsco/Projects/eth-web-wallet/oasis-credit/contracts/OasisCrowdsale.sol",
  "compiler": {
    "name": "solc",
    "version": "0.4.19+commit.c4cbbb05.Emscripten.clang"
  },
  "schemaVersion": "2.0.0",
  "updatedAt": "2018-03-25T02:58:11.149Z"
}